:020000040000FA
:04000000FEEFFFF020
:020000040001F9
:10FBA800060EE82EFED700D012001CC019F01DC0AA
:10FBB8001AF01EC01BF012001CC016F01DC017F072
:10FBC8001EC018F012001CC013F01DC014F01EC097
:10FBD80015F012001CC010F01DC011F01EC012F06C
:10FBE800120021ECFEF084ECFFF015ECFEF01200A0
:10FBF9002020436163747573204A61636B2000148C
:10FC09000E1C6E7A0EE82EFED71C2EFCD7120007AA
:10FC19000E1C6E7D0EE82EFED71C2EFCD700F012AE
:10FC290000600E3901D96F000EDB6F000EDD6F0227
:10FC39000EDF6F000EDE6F12003901C069800EC140
:10FC49006F670EC26FC369E00EC46F370EC56F3F91
:10FC59000EC66F030EC76F1200F90EF66EFB0EF794
:10FC69006E010EF86E00EE01F010EE0FF009006F54
:10FC790000D7FFEEFFE550E150F9E1000183EFFE07
:10FC8900F01C6E0F0EC2160F0ECA161C50F00BCACE
:10FC990012CA92CA90D4ECFDF0CA84D4ECFDF0CA21
:10FCA900940F0ECA161C38F00BF00BCA12D4ECFDD7
:10FCB900F0CA84D4ECFDF0CA94F00EC21212001CF2
:10FCC9006E0F0EC2160F0ECA161C50F00BCA12CABE
:10FCD90080CA92D4ECFDF0CA84D4ECFDF0CA940F2A
:10FCE9000ECA161C38F00BF00BCA12D4ECFDF0CA80
:10FCF90084D4ECFDF0CA94F00EC2121200F5ECFDAA
:10FD0900F02B0E0BECFFF00C0E45ECFEF0800E45CF
:10FD1900ECFEF0010E1D6E000E1E6EE5ECFEF00D00
:10FD29000E1F6EFC0EE82EFED71F2EFCD700F0002A
:10FD3900F000F094EFFEF0FEEFFFF01C6E0F0EC224
:10FD4900160F0ECA161C508009F00BCA12CA92CAA5
:10FD590090D4ECFDF0CA84D4ECFDF0CA940F0ECA1D
:10FD6900161C38F00BF00BCA12D4ECFDF0CA84D47F
:10FD7900ECFDF0CA94F00EC2121200CA82CA90D4E5
:10FD8900ECFDF0CA84D4ECFDF0CAAECEEFFEF0D0A3
:10FD9900EFFEF0DBEFFEF0CA94D4ECFDF0CA84D498
:10FDA900ECFDF0CA94CA92010EE4EFFEF0CA94D4B5
:10FDB900ECFDF0CA84D4ECFDF0CA94CA92000E128C
:10FDC90000FCEFFEF0C2ECFEF00009D8A4EFEFFE54
:10FDD900F0F1EFFEF0E7EFFEF0600077F0D9FF6099
:10FDE900007BF0DAFFDF5064ECFEF01D4A1E2A604A
:10FDF9000077F0D9FF60007BF0DAFFDF50D8A40864
:10FE0900EFFFF00AEFFFF0E7EFFEF012001D6E0FB3
:10FE19000ECA16F00EC212C292C290C294CA92CAF7
:10FE290090CA9404ECFEF00F0EC2160F0ECA16CA41
:10FE39008ACA84D4ECFDF0CA940CECFEF00F0ECA09
:10FE490016CA8ACA84D4ECFDF0CA940CECFEF00FF1
:10FE59000ECA16CA8ACA84D4ECFDF0CA94F00EC23E
:10FE690012C2ECFEF00009D8A43DEFFFF03FEFFF0E
:10FE7900F035EFFFF01D5045ECFEF0C2ECFEF0004E
:10FE890009D8A44AEFFFF04CEFFFF042EFFFF0086A
:10FE99000E45ECFEF0C2ECFEF00009D8A457EFFFC6
:10FEA900F059EFFFF04FEFFFF00F0E45ECFEF0C2F7
:10FEB900ECFEF00009D8A464EFFFF066EFFFF05CF8
:10FEC900EFFFF0010E45ECFEF0C2ECFEF00009D8A0
:10FED900A471EFFFF073EFFFF069EFFFF0130E4528
:10FEE900ECFEF0C2ECFEF00009D8A47EEFFFF08032
:10FEF900EFFFF076EFFFF0000EA2ECFEF01200002B
:10FF09000EBE6E000EBD6E000EBA6EF00EBB6E0018
:10FF19000EBC6E000EC66E000EC26EF00EC36E00F1
:10FF29000EC46E000EC56E000E3A01706F000E60B1
:10FF39006F000E506F000E806F000E406F000E7143
:10FF49006F000E816FF00E516F000E416F000E6150
:10FF59006F000E5A6F000E5B6F000E6A6F000E6B1A
:10FF69006F000E7A6F000E7B6F000E826F000E42DB
:10FF79006F000E526F000E626F000E726F4369536D
:10FF89006963697369070E836F44695469646974A5
:10FF9900690F0E846F5799579B579D579F568956DE
:10FFA9008B568D568F5599559B559D559F000E1C07
:10FFB9006E000E1D6E000E1E6ED9ECFDF0000E1CBB
:10FFC9006E000E1D6E000E1E6EE0ECFDF0000E1CA4
:10FFD9006E000E1D6E000E1E6EE7ECFDF0000E1C8D
:10FFE9006E000E1D6E000E1E6EEEECFDF0390190D6
:07FFF9008F120031EFFEF052
:020000040020DA
:10000000FF0FFF0FFF0FFF0FFF0FFF0FFF0FFF0F80
:020000040030CA
:0A000000ECFFF5FF9FFFFFDFFFFF9D
:00000001FF
